:020000040800F2
:100000000000022009770008016E0008036E000856
:10001000056E0008076E0008096E00080000000069
:10002000000000000000000000000000F14A00088D
:100030000B6E000800000000914B0008F54B000813
:100040005977000859770008597700085977000850
:100050005977000859770008597700085977000840
:100060005977000859770008597700085977000830
:100070000D6E000859770008597700085977000875
:100080005977000859770008597700085977000810
:100090001D6E000859770008597700085977000845
:1000A00059770008597700085977000859770008F0
:1000B0002D6E000859770008597700085977000815
:1000C00059770008597700085977000859770008D0
:1000D000597700085977000859770008B1110008CE
:1000E00059770008597700085977000859770008B0
:1000F000597700083D6E00085977000859770008C5
:10010000597700085977000859770008597700088F
:10011000597700085977000859770008597700087F
:100120005977000859770008556E0008656E000879
:10013000597700085977000859770008597700085F
:10014000756E00085977000859770008597700083C
:10015000856E000859770008956E000859770008E9
:10016000597700085977000859770008597700082F
:1001700059770008597700085977000800000000F7
:080180005977000859770008C7
:1001900010B5054C237833B9044B13B10448AFF3C1
:1001A00000800123237010BD5C08002000000000C7
:1001B0009881000808B5034B1BB103490348AFF30E
:1001C000008008BD00000000600800209881000841
:1001D00070B54FF0FF0C4CF4E06C1CEA11541DBFDD
:1001E0001CEA135594EA0C0F95EA0C0F00F0DEF8A8
:1001F0002C4481EA030621EA4C5123EA4C5350EA8D
:10020000013518BF52EA033541F4801143F48013DD
:1002100038D0A0FB02CE4FF00005E1FB02E506F06E
:100220000042E0FB03E54FF00006E1FB03569CF0C3
:10023000000F18BF4EF0010EA4F1FF04B6F5007FC9
:1002400064F5407404D25FEA4E0E6D4146EB06063B
:1002500042EAC62141EA55514FEAC52040EA5E50C4
:100260004FEACE2EB4F1FD0C88BFBCF5E06F1ED86E
:10027000BEF1004F08BF5FEA500E50F1000041EBA5
:10028000045170BD06F0004646EA010140EA020052
:1002900081EA0301B4EB5C04C2BFD4EB0C0541EA74
:1002A000045170BD41F480114FF0000E013C00F389
:1002B000AB8014F1360FDEBF002001F0004170BDAD
:1002C000C4F10004203C35DA0C341BDC04F11404C6
:1002D000C4F1200500FA05F320FA04F001FA05F252
:1002E00040EA020001F0004221F0004110EBD3701F
:1002F00021FA04F642EB06015EEA430E08BF20EA4B
:10030000D37070BDC4F10C04C4F1200500FA04F3ED
:1003100020FA05F001FA04F240EA020001F000417F
:1003200010EBD37041F100015EEA430E08BF20EAF2
:10033000D37070BDC4F1200500FA05F24EEA020E3A
:1003400020FA04F301FA05F243EA020321FA04F069
:1003500001F0004121FA04F220EA020000EBD37020
:100360005EEA430E08BF20EAD37070BD94F0000F20
:100370000FD101F00046400041EB010111F4801F54
:1003800008BF013CF7D041EA060195F0000F18BF05
:10039000704703F00046520043EB030313F4801F41
:1003A00008BF013DF7D043EA0603704794EA0C0FFB
:1003B0000CEA135518BF95EA0C0F0CD050EA410611
:1003C00018BF52EA4306D1D181EA030101F000418E
:1003D0004FF0000070BD50EA410606BF10461946B6
:1003E00052EA430619D094EA0C0F02D150EA0136C2
:1003F00013D195EA0C0F05D152EA03361CBF104603
:1004000019460AD181EA030101F0004141F0FE41A1
:1004100041F470014FF0000070BD41F0FE4141F425
:10042000780170BD81F0004102E000BF83F000431D
:1004300030B54FEA41044FEA430594EA050F08BF7F
:1004400090EA020F1FBF54EA000C55EA020C7FEA43
:10045000645C7FEA655C00F0E2804FEA5454D4EBC0
:100460005555B8BF6D420CDD2C4480EA020281EA8A
:10047000030382EA000083EA010180EA020281EAC2
:100480000303362D88BF30BD11F0004F4FEA013114
:100490004FF4801C4CEA113102D0404261EB410123
:1004A00013F0004F4FEA03334CEA133302D05242A9
:1004B00063EB430394EA050F00F0A780A4F1010465
:1004C000D5F1200E0DDB02FA0EFC22FA05F280189F
:1004D00041F1000103FA0EF2801843FA05F3594185
:1004E0000EE0A5F120050EF1200E012A03FA0EFC04
:1004F00028BF4CF0020C43FA05F3C01851EBE3712E
:1005000001F0004507D54FF0000EDCF1000C7EEB4A
:1005100000006EEB0101B1F5801F1BD3B1F5001F88
:100520000CD349085FEA30004FEA3C0C04F10104A7
:100530004FEA445212F5800F80F09A80BCF1004FD0
:1005400008BF5FEA500C50F1000041EB045141EA52
:10055000050130BD5FEA4C0C404141EB0101013C1B
:1005600028BFB1F5801FE9D291F0000F04BF01460A
:100570000020B1FA81F308BF2033A3F10B03B3F1DC
:1005800020020CDA0C3208DD02F1140CC2F10C026C
:1005900001FA0CF021FA02F10CE002F11402D8BFCA
:1005A000C2F1200C01FA02F120FA0CFCDCBF41EA96
:1005B0000C019040E41AA2BF01EB0451294330BD65
:1005C0006FEA04041F3C1CDA0C340EDC04F1140442
:1005D000C4F1200220FA04F001FA02F340EA030019
:1005E00021FA04F345EA030130BDC4F10C04C4F15F
:1005F000200220FA02F001FA04F340EA030029463F
:1006000030BD21FA04F0294630BD94F0000F83F488
:10061000801306BF81F480110134013D4EE77FEA6B
:10062000645C18BF7FEA655C29D094EA050F08BFB7
:1006300090EA020F05D054EA000C04BF1946104698
:1006400030BD91EA030F1EBF0021002030BD5FEADC
:10065000545C05D14000494128BF41F0004130BD04
:1006600014F580043CBF01F5801130BD01F0004558
:1006700045F0FE4141F470014FF0000030BD7FEACB
:10068000645C1ABF194610467FEA655C1CBF0B46C6
:10069000024650EA013406BF52EA033591EA030FDD
:1006A00041F4002130BD00BF90F0000F04BF0021D5
:1006B000704730B54FF4806404F132044FF0000508
:1006C0004FF0000150E700BF90F0000F04BF002181
:1006D000704730B54FF4806404F1320410F00045E7
:1006E00048BF40424FF000013EE700BF42004FEAE2
:1006F000E2014FEA31014FEA02701FBF12F07F435F
:1007000093F07F4F81F06051704732F07F4208BF15
:10071000704793F07F4F04BF41F40021704730B51C
:100720004FF4607401F0004521F000411CE700BF68
:1007300050EA010208BF704730B54FF000050AE0EB
:1007400050EA010208BF704730B511F0004502D5EC
:10075000404261EB41014FF4806404F132045FEAEE
:10076000915C3FF4D8AE4FF003025FEADC0C18BF97
:1007700003325FEADC0C18BF033202EBDC02C2F189
:10078000200300FA03FC20FA02F001FA03FE40EA1B
:100790000E0021FA02F11444BDE600BF4A0011D256
:1007A00012F5001211D20DD56FF47873B3EB6252CB
:1007B0000ED44FEAC12343F0004343EA505323FAD7
:1007C00002F070474FF00000704750EA013002D14C
:1007D0004FF0FF3070474FF00000704753B94AB9EF
:1007E000002908BF00281CBF4FF0FF314FF0FF3039
:1007F00000F06EB9ADF1080C6DE904CE00F006F81A
:10080000DDF804E0DDE9022304B070472DE9F0478C
:10081000089D04468C46002B40F083808A42174690
:1008200047D9B2FA82F242B1C2F1200024FA00F0B4
:100830009140974040EA010C94404FEA1748230C3E
:10084000BCFBF8F61FFA87FE08FB16C143EA01431A
:1008500006FB0EF1994209D9FB1806F1FF3080F032
:100860001981994240F21681023E3B445B1AA4B2C0
:10087000B3FBF8F008FB103344EA034400FB0EFE20
:10088000A64509D93C1900F1FF3380F00581A64542
:1008900040F2028102383C4440EA0640A4EB0E04D8
:1008A00000261DB1D4400023C5E900433146BDE810
:1008B000F08702B9FFDEB2FA82F2002A50D1CB1BD8
:1008C0004FEA174E1FFA87F80126B3FBFEFC210CF6
:1008D0000EFB1C3341EA034108FB0CF38B4207D9A2
:1008E00079180CF1FF3002D28B4200F2E980844685
:1008F000C91AA3B2B1FBFEF00EFB101143EA01448A
:1009000008FB00F8A04507D93C1900F1FF3302D2DB
:10091000A04500F2D9801846A4EB080440EA0C4038
:10092000BFE78B4209D9002D00F0B1800026C5E950
:10093000000130463146BDE8F087B3FA83F6002E59
:100940004AD18B4202D3824200F2B880841A61EB12
:10095000030101208C46002DA8D0C5E9004CA5E775
:10096000C2F1200320FA03F6974001FA02F04FEAA1
:10097000174ED9403043030CB1FBFEF61FFA87F83F
:100980000EFB161143EA014306FB08F1994204FAF3
:1009900002F409D9FB1806F1FF3C80F08D809942E2
:1009A00040F28A80023E3B445B1A81B2B3FBFEF008
:1009B0000EFB103341EA034100FB08F38B4207D9D9
:1009C000791800F1FF3C73D28B4271D90238394457
:1009D000CB1A40EA064678E7C6F1200C03FA06F483
:1009E00022FA0CF31C4320FA0CF701FA06F34FEA43
:1009F000144E21FA0CF11F433B0CB1FBFEF91FFA18
:100A000084F80EFB191143EA014109FB08FA8A45F3
:100A100002FA06F200FA06F308D9611809F1FF306C
:100A200048D28A4546D9A9F102092144A1EB0A011D
:100A3000BFB2B1FBFEF00EFB101147EA014700FB0D
:100A400008F8B84507D9E71900F1FF312ED2B845AB
:100A50002CD90238274440EA0940A7EB0807A0FB3D
:100A600002894F45C64649461AD317D05DB1B3EB4C
:100A70000E0267EB010707FA0CFCF2404CEA020297
:100A8000F740C5E9002700263146BDE8F0872E462D
:100A900028460BE70646E9E61846FDE64345E5D25B
:100AA000B8EB020E69EB04010138DFE70846D2E734
:100AB00060468DE78146B9E7664675E730464AE706
:100AC000ACF1020C394413E702383C4424E700BF80
:100AD000704700BF844641EA000313F003036DD161
:100AE000403A41D351F8043B40F8043B51F8043BF1
:100AF00040F8043B51F8043B40F8043B51F8043BF8
:100B000040F8043B51F8043B40F8043B51F8043BE7
:100B100040F8043B51F8043B40F8043B51F8043BD7
:100B200040F8043B51F8043B40F8043B51F8043BC7
:100B300040F8043B51F8043B40F8043B51F8043BB7
:100B400040F8043B51F8043B40F8043B51F8043BA7
:100B500040F8043B51F8043B40F8043B51F8043B97
:100B600040F8043B403ABDD2303211D351F8043B37
:100B700040F8043B51F8043B40F8043B51F8043B77
:100B800040F8043B51F8043B40F8043B103AEDD2E6
:100B90000C3205D351F8043B40F8043B043AF9D237
:100BA000043208D0D2071CBF11F8013B00F8013B0A
:100BB00001D30B8803806046704700BF082A13D317
:100BC0008B078DD010F003038AD0C3F10403D21A2F
:100BD000DB071CBF11F8013B00F8013B80D331F863
:100BE000023B20F8023B7BE7043AD9D3013A11F8E3
:100BF000013B00F8013BF9D20B7803704B7843704E
:100C00008B7883706046704790F82430002B39D081
:100C100070B504460368B3F90000A3681A8881B26E
:100C2000521A93B2E58912FB05F2E58A15FA82F2AF
:100C300012B2E282B4F91450AA421DDDE582228B81
:100C4000891AA28913FB02F3E28A12FA83F39BB298
:100C5000228A11FB02F189B25B1A1BB29D4204DBAE
:100C6000B4F912509D4200DC1D4663681D8020834C
:100C700000F08AFFE06170BDB4F91260B242DEDAC2
:100C8000E682DCE770470000002925DB002A23DB31
:100C9000002B21DB70B4B0F92050104E86FB0546C6
:100CA000EC17C4EBA61424B2818112FB04F295B2B6
:100CB000C28193FBF4F31BB2038290F82520012A32
:100CC00001D070BC704789B2494281816D42C581B3
:100CD0009BB25B420382F4E7704700BFD34D6210C2
:100CE00091421FDA4182828290F82430D3B110B44D
:100CF0004368B3F9004094420ADD1A80B0F9163017
:100D0000B0F91420934207DDC2825DF8044B7047AE
:100D10008C42F3DA1980F1E7B0F912209342F4DA49
:100D2000C282F2E7704790F8243063B190F8253022
:100D30008B4208D083895B428381C3895B42C38134
:100D4000038A5B42038280F82510704738B5044659
:100D5000016042608360012580F82450FF22002159
:100D6000FFF7BEFF65836423236200212046FFF75F
:100D7000DAFFBDF91830BDF91420BDF91010204676
:100D8000FFF782FF00F000FF236AC01AE0612046EF
:100D900038BD0000B0F904108181B0F91430002B87
:100DA0000BDDB0F90E20914207DA01F5FF531F3336
:100DB0009B1A02691344036107E0002B16DBB0F9AC
:100DC0000E30CA1A0369134403610369104A93423F
:100DD00004DDA3F51933A3F26D2303610369002B2E
:100DE00010DBB0F902308382C1817047B0F90E3058
:100DF0009942E4DDA3F5FF531F3B5B1A02691344DC
:100E00000361E2E703F5193303F26D230361E8E7B9
:100E10006D66020010B58AB0044601AB03AA00213A
:100E200001F038F8914B9C420FD09148039BA3F2FC
:100E30000123072B2AD8DFE813F00A002B004A0011
:100E400069008C00AF00D200F5008A48EEE7B0F9E7
:100E5000043043819DF804209DF8053043EA0223C5
:100E600083809DF806301B021BB29DF807201343B8
:100E700043809DF808301B021BB29DF809201343E4
:100E8000C3809DF80A300372FFF784FF0AB010BDDB
:100E9000B0F91C3043849DF804209DF8053043EAE6
:100EA000022383839DF806301B021BB29DF80720A6
:100EB000134343839DF808301B021BB29DF80920A1
:100EC0001343C3839DF80A3080F82030DEE7B0F981
:100ED000343043879DF804209DF8053043EA02230F
:100EE00083869DF806301B021BB29DF80720134332
:100EF00043869DF808301B021BB29DF8092013435E
:100F0000C3869DF80A3080F83830BFE7B0F94C301E
:100F1000A0F852309DF804209DF8053043EA0223E2
:100F2000A0F84C309DF806301B021BB29DF807203C
:100F30001343A0F84A309DF808301B021BB29DF8FD
:100F400009201343A0F84E309DF80A3080F8503045
:100F50009CE7B0F96430A0F86A309DF804209DF851
:100F6000053043EA0223A0F864309DF806301B02E6
:100F70001BB29DF807201343A0F862309DF808309B
:100F80001B021BB29DF809201343A0F866309DF8A0
:100F90000A3080F8683079E7B0F97C30A0F8823008
:100FA0009DF804209DF8053043EA0223A0F87C3028
:100FB0009DF806301B021BB29DF807201343A0F8D2
:100FC0007A309DF808301B021BB29DF809201343AC
:100FD000A0F87E309DF80A3080F8803056E7B0F9EE
:100FE0009430A0F89A309DF804209DF8053043EA2B
:100FF0000223A0F894309DF806301B021BB29DF826
:1010000007201343A0F892309DF808301B021BB252
:101010009DF809201343A0F896309DF80A3080F817
:10102000983033E7B0F9AC30A0F8B2309DF8042026
:101030009DF8053043EA0223A0F8AC309DF8063055
:101040001B021BB29DF807201343A0F8AA309DF89D
:1010500008301B021BB29DF809201343A0F8AE30E4
:101060009DF80A3080F8B03010E700BFFC53002034
:10107000380900207808002000285AD003460029AB
:1010800057D0F0B40678427846EA0226C6F30A063C
:101090000E8045788278ED0845EA4215C5F30A05C9
:1010A0004D808278C078920942EA8002187942EA3B
:1010B0008022C2F30A028A8018795C79400840EAEB
:1010C000C410C0F30A00C8805C79C4F301148C72A8
:1010D0005C79A409CC729C79DF7944EA07248C817D
:1010E0001C7A5F7A44EA0724CC819C7ADF7A44EA4E
:1010F00007240C821C7B8C745C7BCC749C7BDF7B18
:1011000044EA07248C821C7C5B7C44EA03231BB2E8
:10111000A6F580660E80A5F580654D80A2F58062FB
:101120008A80A0F58060C880A3F580630B81F0BC45
:101130007047704710B4164B1B685C6944F040045C
:101140005C61DC6844F01004DC60124B1C682368AE
:1011500023F0010323600F4B1B681C6814F0010F80
:1011600004D01C6824F001041C60F4E70A4C9C6065
:10117000D86019615A601A6842F480221A60054BDF
:101180001A68136843F0010313605DF8044B70475D
:10119000A8580020085800200448004008B503481B
:1011A00024228118FFF7C6FF08BD00BF100A0020E7
:1011B00000B583B02F4B1B681A6812F0200F09D0BE
:1011C000002200921A6800925B680093009B03B0B3
:1011D0005DF804FB284A126812F0100FF7D00022C5
:1011E00001921A6801925B680193019B234B1B6873
:1011F0001A6812F4002F1DD11A6822F001021A6039
:101200001E4802685368C3F124039BB21C490B803B
:1012100024215160116841F40021116001680A68BD
:1012200042F001020A60122BD1D116491648FFF78D
:1012300023FFCCE71A6822F001021A600F49086800
:101240004368C3F124030E4A1380242343600F48EC
:10125000036823F40023036009680B6843F001036B
:101260000B601388122BB2D106490948FFF704FF1F
:10127000ADE700BFA85800200048004008580020F3
:10128000580A0020F8090020100A002028600240B7
:10129000340A002030B585B000F07AFB00F0ACFADB
:1012A000042006F085FA0246104B1860104D002409
:1012B0000294019440F24C4300930E4B0E49284691
:1012C000FFF744FD40F6B8320C492846FFF708FD09
:1012D0000B4D284602F0DFFD2146284603F0D4F8E6
:1012E000084802F0EAFD05B030BD00BFAC0A00209E
:1012F000840A002000000020800A002048F4FFFF3C
:101300004856002088560020014B5863704700BFA4
:101310000044014010B50A4C04F1240204F10C0110
:10132000204600F077FA04F1180000F06DFB054C40
:101330002046FFF769FCA088FFF7E6FF10BD00BF5D
:101340005C0A0020840A002010B5084C204602F0F8
:10135000A2FD0021204603F097F80421204603F067
:1013600093F80821204603F08FF810BDC8560020DE
:10137000030EC0F3074202FB03F2C0F3072101FB97
:1013800003F1C0B200FB03F0024B1B685863996382
:10139000DA637047C856002010B5044610EE100AF4
:1013A000FFF7A4F91BA3D3E90023FEF711FF0022E6
:1013B000154BFFF73DF8FFF7F1F983B2A01E0628A1
:1013C00008D8DFE800F004080C1014181C000F4ABD
:1013D0001268936310BD0D4A1268D363FAE70B4A93
:1013E00012681364F6E70A4A12685363F2E7084A80
:1013F00012689363EEE7054A1268D363EAE7034A8B
:1014000012681364E6E700BF00407F4008560020E2
:1014100008570020ABAAAAAAAAAA204038B52DEDE9
:10142000028B264D284602F036FD254C204602F060
:1014300032FD0421284603F027F80821284603F04E
:1014400023F80C21284603F01FF80021204603F062
:101450001BF80421204603F017F80821204603F06A
:1014600013F80C21204603F00FF89FED168AB0EE1A
:10147000480A0220FFF790FFB0EE480A0320FFF76A
:101480008BFFB0EE480A0420FFF786FFB0EE480A53
:101490000520FFF781FFB0EE480A0620FFF77CFF2A
:1014A000B0EE480A0720FFF777FFB0EE480A0820A1
:1014B000FFF772FFBDEC028B38BD00BF085600205D
:1014C000085700200000B44210B5124C204602F02C
:1014D000E2FC1148FFF74CFF0021204602F0D4FF48
:1014E0000421204602F0D0FF0821204602F0CCFF64
:1014F0000C21204602F0C8FF4FF07F40FFF738FF75
:1015000023684FF47A7058639863D86300F042FB05
:1015100010BD00BF0856002000A5FFFF70477047B0
:1015200008B500F037FB08BD10B5431E9CB228B1CA
:101530004FF47A70FFF7F4FF2046F6E710BD000085
:1015400008B500221021024801F080F908BD00BF53
:101550000000024008B501221021024801F076F98E
:1015600008BD00BF0000024008B50022012102486A
:1015700001F06CF908BD00BF0004024008B501226B
:101580001146024801F062F908BD00BF00040240A4
:1015900000B587B08DF80F004FF47A7300930123E4
:1015A0000DF117020DF10F01034802F097FA9DF8B3
:1015B000170007B05DF804FB6C55002010B50C4611
:1015C000FFF7E6FF2046FFF7E3FF10BD10B50C461E
:1015D00040F08000FFF7DCFF5520FFF7D9FF2070B7
:1015E00010BD38B50D46144640F08000FFF7D0FF1F
:1015F0003CB15520FFF7CCFF05F8010B013CE4B2EC
:10160000F6E738BDF8B5FFF79BFF8020FFF7C0FF76
:101610005520FFF7BDFF5520FFF7BAFFFFF79AFFF0
:101620009620FFF77DFFFFF78BFF8020FFF7B0FFCD
:101630005520FFF7ADFF5520FFF7AAFFFFF78AFF00
:101640009620FFF76DFFFFF77BFFB6217E20FFF7A7
:10165000B5FFFFF77FFF0120FFF766FFFFF770FF81
:101660008020FFF795FF5520FFF792FF5520FFF7E9
:101670008FFFFFF76FFF9620FFF752FFFFF760FF26
:101680008020FFF785FF5520FFF782FF5520FFF7E9
:101690007FFFFFF75FFF9620FFF742FF0024052C36
:1016A0002DD8FFF74DFF174A04EB4403D1184E78AD
:1016B000D55C31462846FFF781FFFFF74BFF9620A8
:1016C000FFF72EFFFFF73CFF45F08000FFF760FFBC
:1016D0005520FFF75DFF5520FFF75AFF0546FFF73E
:1016E00039FF9620FFF71CFFAE4202D10134E4B26D
:1016F000D5E704EB4407034B1F44B87800E0002013
:10170000F8BD00BFB8810008F0B583B000248DF8A3
:101710000740FFF729FF0DF107012046FFF756FFAD
:10172000FFF72CFF9620FFF7FBFEFFF71DFF0DF1E3
:1017300007012046FFF74AFFFFF720FF9620FFF73B
:10174000EFFEFFF711FFB6211420FFF737FFFFF779
:1017500015FF0120FFF7E8FEFFF706FF0DF1070177
:101760002046FFF733FFFFF709FF9620FFF7D8FE6B
:10177000FFF7FAFE0DF107012046FFF727FFFFF7FD
:10178000FDFE9620FFF7CCFE9DF807300F2B2ED1E3
:10179000052C29D8FFF7E8FE164A04EB4403D118BC
:1017A0004D78D65C29463046FFF708FFFFF7E6FE86
:1017B0009620FFF7B5FEFFF7D7FE0DF10701304683
:1017C000FFF704FFFFF7DAFE9620FFF7A9FE9DF86A
:1017D00007309D4202D10134E4B2D9E704EB44075B
:1017E000044B1F44B87800E0002003B0F0BDFF2098
:1017F000FBE700BFCC81000810B5FFF78FFEFFF7B5
:101800008EFEFFF7FFFE0446FFF77EFF2043C0B2C7
:1018100010BD0000F0B583B006460D461446594B86
:1018200093E803000090ADF80410090C8DF8061041
:1018300000278DF80770FFF783FE9220FFF7A8FEC0
:10184000062269461220FFF7CCFEFFF783FE9DF8C3
:1018500001301B021BB29DF80020134307EE903AA3
:10186000F8EEE77A484A92ED007A67EE877AC5ED9E
:10187000007A9DF803301B021BB29DF802100B4347
:1018800007EE103AD2ED006AB8EEC77A27EE267A54
:1018900085ED017A9DF805301B021BB29DF80420EE
:1018A000134307EE903AF8EEE77A67EEA67AC5EDB5
:1018B000027AFFF759FE082269463846FFF791FE83
:1018C000FFF75CFE9DF800300F2B27D0FFF738FEA6
:1018D000A220FFF75DFE022269462220FFF781FE6B
:1018E000FFF738FE9DF800209DF801305B0943EAC0
:1018F000C203B3F5806F01DBA3F5006307EE903AF6
:10190000F8EEE77AB4EE007A67EE877AB3EE077AFC
:1019100077EE877AC4ED007A03B0F0BD9DF803300E
:101920001B021BB29DF80220134307EE903AF8EE1B
:10193000E77A164A92ED007A67EE877AC6ED007A6A
:101940009DF805301B021BB29DF804100B4307EEF7
:10195000103AD2ED006AB8EEC77A27EE267A86ED05
:10196000017A9DF807301B021BB29DF80620134335
:1019700007EE903AF8EEE77A67EEA67AC6ED027ABD
:10198000A4E700BFB0810008040000200800002088
:10199000F8B500F075F800F074F800F0C5F83220E2
:1019A00000F0B0F800F0B6F8322000F0ABF80020FC
:1019B00000F068F8102823D10024032C1ED8114A07
:1019C00004EB4403D118D55C4E783146284600F02C
:1019D00071F8962000F09AF8284600F053F8054672
:1019E000962000F093F8AE4202D10134E4B2E4E76D
:1019F00004EB4407034B1F44B87800E00020F8BD17
:101A00004020FCE7E081000810B582B004460622C1
:101A10006946032000F064F89DF801301B021BB2F8
:101A20009DF80020134307EE103AB8EEC77ADFEDB9
:101A3000136A27EE267A84ED007A9DF803301B02A4
:101A40001BB29DF80220134307EE103AB8EEC77A96
:101A500027EE267A84ED017A9DF805301B021BB231
:101A60009DF80420134307EE903AF8EEE77A67EE0C
:101A7000A67AC4ED027A02B010BD00BF9A99993ED1
:101A80007047704700B587B0024600238DF81730C5
:101A90000A230293012301930DF1170100911C21E8
:101AA000034801F0B1FA9DF8170007B05DF804FB98
:101AB0005854002000B587B002468DF817100A234D
:101AC0000293012301930DF1170100911C2103489A
:101AD00001F0E8F907B05DF804FB00BF585400209E
:101AE00000B585B00A2302930192009101230246BA
:101AF0001C21034801F088FA05B05DF804FB00BF23
:101B00005854002008B500F045F808BD08B500F0AD
:101B100041F808BD08B501224021024800F096FEB8
:101B200008BD00BF0018024008B50022402102484D
:101B300000F08CFE08BD00BF0018024008B50B4B3A
:101B40001A6842F400721A601A6842F480621A60DD
:101B50001A6842F480721A60032000F07FFB0020B4
:101B600005F012F905F0EEF8002008BD003C024037
:101B7000034A1168034B1B780B441360704700BF86
:101B8000B00A00200C000020014B1868704700BF0D
:101B9000B00A002038B50446FFF7F6FF0546B4F159
:101BA000FF3F02D0044B1B781C44FFF7EDFF401BA6
:101BB000A042FAD338BD00BF0C000020002800F07E
:101BC000A18038B5044690F82030D3B1226813685C
:101BD00023F002031360FFF7D7FF054623685A6816
:101BE00012F0020F10D0FFF7CFFF401B0A28F5D9E3
:101BF000636A43F400336362052384F820300120D4
:101C000038BD04F091FCE1E71A6842F001021A6065
:101C1000FFF7BAFF054623685A6812F0010F0DD18D
:101C2000FFF7B2FF401B0A28F5D9636A43F400337B
:101C30006362052384F820300120E1E7227E012A37
:101C40003DD01A6822F080021A60637E012B3BD0DF
:101C50002268136823F040031360A37E012B39D060
:101C60002268136823F020031360E37E012B37D032
:101C70002268136843F010031360237F012B35D0D3
:101C80002268136823F008031360637F012B33D0AD
:101C90002268136823F004031360A368E268134307
:101CA00022691343626913436268013A216813434E
:101CB000CB6100206062012384F82030A0E71A681D
:101CC00042F080021A60C0E72268136843F04003C4
:101CD0001360C2E72268136843F020031360C4E76F
:101CE0002268136823F010031360C6E722681368A4
:101CF00043F008031360C8E72268136843F0040345
:101D00001360CAE70120704790F82030013BDBB236
:101D1000012B05D9436A43F48023436201207047B5
:101D200070B4444BD3F8002242F00102C3F8002201
:101D3000D3F8002222F47C52C3F80022D3F8002208
:101D4000486A42EA0022C3F800224A6902F01F02F0
:101D5000012000FA02F2D3F81C02D44320EA020068
:101D6000C3F81C02CB69B3B9324BD3F80C02204044
:101D7000C3F80C02CE688D88486945EA06454830AC
:101D800043F830508E6808884D6940EA064048356F
:101D900003EBC5035860CB69012B1DD08B69002B69
:101DA00032D12448D0F804322340C0F804320B6901
:101DB0008BBB204BD3F814020440C3F814420B6AC7
:101DC000012B2FD01B4AD2F8003223F00103C2F8B6
:101DD0000032002070BC7047164BD3F80C02104341
:101DE000C3F80C020E688D88486945EA06454830FC
:101DF00043F830508E6888894D6940EA064048357E
:101E000003EBC5035860C9E70A48D0F8043213430E
:101E1000C0F80432CBE70748D0F814321343C0F8B7
:101E20001432CCE70349D1F81C321A43C1F81C2202
:101E3000C8E700BF0064004070B5044690F8205029
:101E4000EDB2012D06D0436A43F40023436201251D
:101E5000284670BD022380F820300268136823F002
:101E600001031360FFF790FE064623685B6813F0DA
:101E7000010F0CD0FFF788FE831B0A2BF5D9636A8C
:101E800043F400336362052384F82030E0E7002543
:101E90006562DDE730B490F82040013CE4B2012CEB
:101EA00000F2918051B90468E46814F0030F10D176
:101EB000436A43F400134362012089E00468246903
:101EC00014F0030F05D1436A43F400134362012069
:101ED0007EE0056801F11B0424012C5904F0040480
:101EE0009460002C61D1056801F11B0424012C5978
:101EF000640D1460056801F11B0424012D5905F0DF
:101F00000205D560056825446D6805F00F0515616B
:101F1000056825446D68C5F30725956105682C445F
:101F20006468240C5461026802EB0112D2F8B821F3
:101F30001A70026802EB0112D2F8B821C2F307222C
:101F40005A70026802EB0112D2F8B821C2F30742BC
:101F50009A70026802EB0112D2F8B821120EDA7000
:101F6000026802EB0112D2F8BC211A71026802EB7E
:101F70000112D2F8BC21C2F307225A71026802EBA7
:101F80000112D2F8BC21C2F307429A71026802EB37
:101F90000112D2F8BC21120EDA7171B90268D3684D
:101FA00043F02003D360002012E0056801F11B0418
:101FB00024012C59E40854609CE70268136943F03B
:101FC00020031361EFE7436A43F480234362012057
:101FD00030BC704790F82030013BDBB2012B05D9B3
:101FE000436A43F4802343620120704702685369C7
:101FF0001943516100207047704770477047704720
:102000007047704770477047704770477047704718
:102010002DE9F84F054603685C69D3F804809F6892
:10202000D3F80CB0D3F810A0D3F8189014F0010630
:102030003BD017F0010616D001229A6017F0020F6C
:1020400008D117F0040F0CD117F0080606D04FF492
:10205000805608E0FFF7D0FF002604E0FFF7CFFF2F
:1020600001E04FF4006617F4807F0DD02B684FF429
:1020700080729A6017F4007F40F0868017F4806FBA
:1020800000F0868046F4005617F4803F0DD02B6890
:102090004FF480329A6017F4003F40F0838017F4C9
:1020A000802F00F0838046F4004614F0080F07D01C
:1020B0001BF0100F04D046F400762B681022DA6073
:1020C00014F0040F02D01BF0080F79D114F0020FA6
:1020D00004D02B68DB6813F0030F78D114F0400FA5
:1020E00007D01AF0100F04D046F480662B68102237
:1020F0001A6114F0200F02D01AF0080F6BD114F0FF
:10210000100F04D02B681B6913F0030F6AD114F46D
:10211000003F02D018F0100F68D114F4803F02D0B5
:1021200018F0080F69D114F4004F7AD018F0040F9A
:1021300074D014F4807F04D019F0010F01D046F060
:10214000010614F4007F04D019F0020F01D046F00C
:10215000020614F4806F04D019F0040F01D046F089
:10216000040614F4006F59D019F0700956D0B9F173
:10217000400F65D058D8B9F1200F5ED0B9F1300FBB
:1021800042D146F0200644E02846FFF736FF7BE7C1
:1021900017F4006F02D046F4804675E72846FFF733
:1021A0002FFF71E72846FFF729FF7EE717F4002F7E
:1021B00002D046F4803678E72846FFF722FF74E71E
:1021C0002B680822DA602846FFF71CFF7EE72846C6
:1021D000FEF720FE82E72B6808221A612846FFF7E7
:1021E00013FF8CE72846FFF70EFF90E72B681022BD
:1021F0005A602846FFF709FF8FE72B6808225A60CC
:102200002846FFF703FF8EE7B9F1100F01D146F022
:1022100008062A68936923F0700393612B680422EF
:102220005A609EB9BDE8F88FB9F1500F0BD0B9F1E3
:10223000600FEED146F48076EBE746F01006E8E753
:1022400046F04006E5E746F08006E2E76B6A1E438B
:102250006E622846FFF7DBFEE4E70000074AD3681A
:1022600023F4E0631B041B0C000200F4E060034352
:1022700043F0BF6343F40033D360704700ED00E0E8
:1022800030B4174BDB68C3F30223C3F10704042CFB
:1022900028BF04241D1D062D18D9033B4FF0FF3520
:1022A00005FA04F421EA0401994005FA03F322EA4D
:1022B0000303194300280BDB0901C9B200F1604098
:1022C00000F5614080F8001330BC70470023E5E75B
:1022D00000F00F000901C9B2024B1954F4E700BF26
:1022E00000ED00E014ED00E0002807DB00F01F0225
:1022F000400901239340024A42F82030704700BF52
:1023000000E100E010B40368D9B210390C4AA2FB16
:10231000014212090B4CA25CC2655F2909D923F462
:102320007F7323F0030304338365806D5DF8044BF2
:10233000704723F47F7323F003038365F5E700BF41
:10234000ABAAAAAAEC810008836A826992B9012B20
:102350000AD0022B02D00BB100207047C36A13F0E1
:10236000807F28D100207047C36AB3F1C07F24D09A
:1023700000207047B2F5005F09D0022B25D9032B4E
:1023800025D1C36A13F0807F23D100207047032B2F
:1023900003D8DFE803F01404140A00207047C36A6E
:1023A00013F0807F0DD100207047C36AB3F1C07F66
:1023B00009D000207047012070470120704701209C
:1023C00070470120704701207047012070470020AE
:1023D000704701207047000070B50446FFF7D4FB3A
:1023E000002C5BD00546002384F83430022384F8A7
:1023F00035302268136823F00103136023681A68DC
:1024000012F0010F0AD0FFF7BFFB431B052BF5D9D4
:1024100020236365032084F8350070BD1A682048C6
:1024200010406168A2680A43E1680A4321690A43CF
:1024300061690A43A1690A43E1690A43216A0A43BF
:102440000243616A04291ED01A602668756925F066
:102450000705636A1D43042B07D1A36A1D43E36A82
:102460001BB12046FFF770FF90B975612046FFF75A
:1024700049FFE26D3F2393408360002060650123A4
:1024800084F83530C9E7E16A206B01430A43DBE792
:1024900040236365012084F83500BEE70120BCE7D6
:1024A0003F8010F0F0B583B0044600230193724BD7
:1024B0001D68724BA3FB0535AD0A876D3E68C26D82
:1024C00008239340334210D003681A6812F0040FB7
:1024D0000BD01A6822F004021A60C26D08239340E0
:1024E000BB60436D43F001034365E26D01239340FC
:1024F000334209D02268526912F0800F04D0BB60C9
:10250000636D43F002036365E26D0423934033423D
:1025100009D02268126812F0020F04D0BB60636D0C
:1025200043F004036365E26D10239340334224D0EB
:102530002268126812F0080F1FD0BB6023681A6867
:1025400012F4802F0DD01B6813F4002F04D1236CDC
:102550009BB12046984710E0A36C73B12046984782
:102560000BE01A6812F4807F03D11A6822F0080287
:102570001A60236C0BB120469847E26D20239340EC
:10258000334255D02268126812F0100F50D0BB6051
:1025900094F83530DBB2052B0ED023681A6812F49C
:1025A000802F33D01B6813F4002F2AD1636C002BCB
:1025B0003ED0204698473BE02268136823F016037C
:1025C00013602268536923F080035361236CA3B125
:1025D0002268136823F008031360E26D3F239340E1
:1025E000BB60002384F83430012384F83530236D38
:1025F000002B3FD0204698473CE0A36C002BE7D14E
:10260000EBE7E36BA3B12046984711E01A6812F498
:10261000807F09D11A6822F010021A60002384F822
:102620003430012384F83530E36B0BB120469847F2
:10263000636DFBB1636D13F0010F17D0052384F8B0
:1026400035302268136823F001031360019B0133C6
:102650000193AB4204D823681B6813F0010FF5D136
:10266000002384F83430012384F83530E36C0BB157
:102670002046984703B0F0BD18000020B5814E1BDE
:1026800000230F2B00F2D980F0B583B039E0072288
:1026900000E00022B2403A430234684E46F824205B
:1026A000674A1468EA4324EA05064F6817F4803F36
:1026B00001D045EA0406624C2660646802EA04061A
:1026C0004F6817F4003F01D045EA04065C4C666091
:1026D000A46802EA04064F6817F4801F01D045EA97
:1026E0000406574CA660E46822404E6816F4001FAA
:1026F00001D045EA0402524CE26001330F2B00F294
:102700009A8001229A400C6804EA020532EA040425
:10271000F3D14C68661E012E03D9112C01D0122C66
:1027200012D186685F000324BC4026EA0406CC6808
:10273000BC4034438460466826EA02064C68C4F311
:1027400000129A4032434260C7685E000324B440DE
:10275000E24327EA04078C68B4403C43C4604C68F9
:10276000022C01D0122C13D1DF08083750F827E0D3
:1027700003F007044FEA840C0F2404FA0CF42EEA49
:10278000040E0C6904FA0CF444EA0E0440F82740E5
:10279000046814404A6802F00302B2402243026017
:1027A0004A6812F0805FA8D000220192254A546C3A
:1027B00044F480445464526C02F480420192019AC1
:1027C0009C08A61C1D4A52F8267003F003029600CE
:1027D0000F22B24027EA02071B4A90423FF459AF4A
:1027E00002F5806290421AD002F58062904218D0C1
:1027F00002F58062904216D002F58062904214D0B9
:1028000002F58062904212D002F58062904210D0B0
:1028100002F5806290423FF43AAF08223AE7012283
:1028200038E7022236E7032234E7042232E70522A2
:1028300030E706222EE703B0F0BD704700380140B4
:10284000003C014000380240000002400AB18161B2
:10285000704709048161704703685A6912F4806FF8
:1028600001D1002070476FF480625A610023036336
:10287000202280F83D2080F83E30026C42F00402B5
:10288000026480F83C30012070472DE9F041074692
:102890000D4690461E4622E0FFF776F9069BC01AC9
:1028A000B04200D8DEB900233B63202287F83D20E8
:1028B00087F83E303A6C42F020023A6487F83C30A8
:1028C00001201AE03B689C6925EA0404A4B2B4FA2A
:1028D00084F46409A0450FD1B6F1FF3FDCD1C5F304
:1028E0000743012BEED13B685C6925EA0404A4B2DE
:1028F000B4FA84F46409EDE70020BDE8F0812DE925
:10290000F04105460E46174698463DE01A6842F4E7
:1029100000721A602B686FF480625A6100232B6387
:10292000202285F83D2085F83E302A6C42F00402D2
:102930002A6485F83C30012034E0FFF725F9A0EB4C
:102940000800B84200D8FFB900232B63202285F885
:102950003D2085F83E302A6C42F020022A6485F83A
:102960003C3001201EE02B689C6926EA0404A4B2D6
:10297000003C18BF0124A4B12B685A6912F4806F7F
:10298000C4D1B7F1FF3FD8D1C6F30743012BEAD139
:102990002B685C6926EA0404A4B2003C18BF012439
:1029A000E9E70020BDE8F08170B504460D46164603
:1029B00023685B6913F0800F1CD12046FFF74CFFA2
:1029C000D0B9B5F1FF3FF3D0FFF7DEF8801BA84286
:1029D00001D8002DECD100232363202284F83D2070
:1029E00084F83E30226C42F02002226484F83C30AD
:1029F000012000E0002070BD0120FCE72DE9F0433C
:102A000085B004460D4691461F46DDF830800D9E88
:102A10000368196841F480711960009643460022EA
:102A20004FF00111FFF731FF60B9236805F0FE0593
:102A30001D613346424626492046FFF760FF68B1D4
:102A4000012008E023681B6813F4807F02D04FF454
:102A500000732364032005B0BDE8F08300230393D3
:102A600023685A6903929B690393039B324641464C
:102A70002046FFF799FF30B9012F0FD123685FFA85
:102A800089F61E61E7E7236C042B01D00120E2E701
:102A90002268136843F400731360F7E723684FEA72
:102AA00019221A61324641462046FFF77DFF20B9C0
:102AB00023685FFA89F61E61CDE7236C042B01D0F1
:102AC0000120C8E72268136843F400731360F7E736
:102AD000020001002DE9F04784B004460D46164679
:102AE00099460C9FDDF834800268136843F48063D4
:102AF00013600368196841F480711960CDF8008093
:102B00003B4600224FF00111FFF7BFFE70B95FFA9C
:102B100085FA236805F0FE051D6143463A464149A2
:102B20002046FFF7ECFE68B1012008E023681B682F
:102B300013F4807F02D04FF400732364032004B0A9
:102B4000BDE8F0870023039323685A6903929B69C9
:102B50000393039B424639462046FFF725FF80B981
:102B6000B9F1010F18D12368F6B21E614246394609
:102B70002046FFF719FF68B3236C042B24D00120F3
:102B8000DDE7236C042B01D00120D8E7226813680D
:102B900043F400731360F7E72368320A1A61424670
:102BA00039462046FFF700FF18B92368F6B21E61C8
:102BB000DCE7236C042B01D00120C0E722681368F6
:102BC00043F400731360F7E72268136843F400735B
:102BD0001360D4E72268136843F480731360CDF860
:102BE00000803B4600224FF001112046FFF74DFECA
:102BF00068B922684AF00103136143463A4609491D
:102C00002046FFF77CFE002899D0012097E7236833
:102C10001B6813F4807F02D04FF4007323640320F9
:102C20008DE700BF0200010070B504460D46164650
:102C300023685B6913F0040F1CD12046FFF70CFEDC
:102C4000D0B9B5F1FF3FF3D0FEF79EFF801BA8423D
:102C500001D8002DECD100232363202284F83D20ED
:102C600084F83E30226C42F02002226484F83C302A
:102C7000012000E0002070BD0120FCE770B5054692
:102C80000C4616462B68596911F0400F29D1596935
:102C900011F0100F15D1FEF777FF801BA04201D86D
:102CA000002CEFD100232B63202285F83D2085F8EE
:102CB0003E302A6C42F020022A6485F83C30012024
:102CC00070BD6FF010025A6100232B63202285F83B
:102CD0003D2085F83E302A6C2A6485F83C3001207E
:102CE000EEE70020ECE70000002800F0CC80F8B50B
:102CF000044690F83D30002B77D0242384F83D30F3
:102D00002268136823F0010313602268136843F4F8
:102D1000004313602268136823F40043136000F03B
:102D2000E1FD62685A4B9A4264D85A4B98428CBF74
:102D300000230123002B40F0A880574DA5FB003550
:102D4000AF0C2668716821F03F0141EA954171603E
:102D500021680B6A23F03F0365684D4A95424FD8BE
:102D60007A1C13430B622568E96921F44F4121F075
:102D7000FF016368464A93424CD801385B00B0FBC0
:102D8000F3F0013040F6FC73184278D0C0F30B0327
:102D90000B43EB6121680B6823F0C003E269206AF2
:102DA000024313430B6021688B6823F4034323F031
:102DB000FF032269E068024313438B602168CB68FC
:102DC00023F0FF036269A06902431343CB602268CA
:102DD000136843F00103136000202064202384F86B
:102DE0003D30206384F83E00F8BD80F83C3003F0AD
:102DF00015FE82E7294B98428CBF0023012399E7F7
:102E00004FF4967202FB07F2254DA5FB0252920980
:102E10000132A6E7A268BAB9461E03EB4307B6FB28
:102E2000F7F60136C6F30B06B6FA86F6760946BB08
:102E3000C2B9421E03EB4303B2FBF3F20132C2F309
:102E40000B0242F40043A3E7461E03EB830707EBA4
:102E50008707B6FBF7F60136C6F30B06B6FA86F619
:102E60007609E4E7421E03EB830303EB8303B2FB23
:102E7000F3F20132C2F30B0242F4404388E7042329
:102E800086E7012384E7012070470120ACE700BFFB
:102E9000A08601007F841E0083DE1B43FF083D00E7
:102EA000D34D62102DE9F04383B004460F4690469F
:102EB00099460C9EFEF768FE054694F83D00C0B2A8
:102EC000202803D0022003B0BDE8F0830095192329
:102ED00001224B492046FFF7D8FC002840F08980AA
:102EE00094F83C30012B00F08680012384F83C30BC
:102EF00023681A6812F0010F03D11A6842F0010228
:102F00001A602268136823F400631360212384F895
:102F10003D30402384F83E30002323640A9B6362E3
:102F2000BDF82C306385638D2385364BE3620195B4
:102F300000964B46424639462046FFF75FFD002883
:102F40005BD1238D002B35D02A4631462046FFF732
:102F50002BFD20BB626A236812781A61616A4B1CE0
:102F60006362228D013A92B22285638D9BB2013B4E
:102F70009BB263852368586910F0040FE1D0002AE2
:102F8000DFD04A781A61636A01336362238D013BA3
:102F90002385638D9BB2013B9BB26385D1E7236C94
:102FA000042B01D001208EE72268136843F40073DC
:102FB0001360F7E72A4631462046FFF735FE50B149
:102FC000236C042B01D001207DE72268136843F4B1
:102FD00000731360F7E72268136843F4007313600B
:102FE000202384F83D30002384F83E3084F83C30C0
:102FF00069E7022067E7022065E7012063E700BF79
:10300000020010000000FFFF2DE9F04387B00446E6
:103010000F4690469946109EFEF7B6FD054694F879
:103020003D00C0B2202804D00227384607B0BDE8D2
:10303000F0830095192301229D492046FFF725FCC6
:10304000002840F0448194F83C30012B00F041818D
:10305000012384F83C3023681A6812F0010F03D171
:103060001A6842F001021A602268136823F40063B0
:103070001360222384F83D30402384F83E3000233F
:1030800023640E9B6362BDF83C306385638D2385AA
:10309000884BE362019500964B46424639462046EE
:1030A000FFF718FD0746002840F01581238D5BB916
:1030B000029323685A6902929A690292029A1A68E4
:1030C00042F400721A6098E0012B0AD0022B1AD049
:1030D0000023059323685A6905929B690593059B14
:1030E0008BE02268136823F480631360002303934A
:1030F00023685A6903929A690392039A1A6842F400
:1031000000721A6079E02268136823F48063136008
:103110002268136843F40063136000230493236858
:103120005A6904929B690493049B66E02A463146DF
:103130002046FFF7A3FD002840F0CF8023681A69DE
:10314000636A1A70636A01336362238D013B2385CE
:10315000638D9BB2013B9BB263854EE00095334685
:10316000002255492046FFF790FB002840F0B78029
:103170002268136843F40073136023681A69636A52
:103180001A70626A531C6362238D013B2385638D31
:103190009BB2013B9BB2638523681B695370636AD2
:1031A00001336362238D013B2385638D9BB2013B19
:1031B0009BB2638521E02268136843F400731360B7
:1031C00023681A69636A1A70626A531C6362238DEA
:1031D000013B2385638D9BB2013B9BB263852368D2
:1031E0001B695370636A01336362238D013B23853E
:1031F000638D9BB2013B9BB26385238D002B5DD019
:10320000032B2BD8012B91D0022BA7D0009533464E
:10321000002229492046FFF738FB002861D12268A7
:10322000136823F48063136023681A69636A1A7051
:10323000636A01336362238D013B2385638D9BB2F7
:10324000013B9BB263850095334600221A49204614
:10325000FFF71BFB0028AED00127E6E62A463146E1
:103260002046FFF70BFD00283DD123681A69636AE9
:103270001A70626A531C6362238D013B2385638D40
:103280009BB2013B9BB263852368596911F0040F1F
:10329000B3D01B695370636A01336362238D013BB2
:1032A0002385638D9BB2013B9BB26385A5E700BF7D
:1032B000020010000000FFFF04000100202384F83A
:1032C0003D30002384F83E3084F83C30ADE60227E0
:1032D000ABE60227A9E60127A7E60127A5E6012715
:1032E000A3E60127A1E601279FE600BF002800F022
:1032F000D98170B582B00446036813F0010F3BD04A
:10330000A64B9B6803F00C03042B2CD0A34B9B68AB
:1033100003F00C03082B21D06368B3F5803F4FD036
:10332000B3F5A02F52D09D4B1A6822F480321A6058
:103330001A6822F480221A606368002B50D0FEF7CE
:1033400023FC0546954B1B6813F4003F14D1FEF790
:103350001BFC401B6428F5D90320AAE18F4B5B6856
:1033600013F4800FD8D08D4B1B6813F4003F03D0AB
:103370006368002B00F09881236813F0020F54D08B
:10338000864B9B6813F00C0F3ED0844B9B6803F078
:103390000C03082B33D0E368002B67D0804B01224D
:1033A0001A60FEF7F1FB05467C4B1B6813F0020F19
:1033B00053D1FEF7E9FB401B0228F5D9032078E141
:1033C000764A136843F480331360B5E7734B1A6889
:1033D00042F480221A601A6842F480321A60ABE725
:1033E000FEF7D2FB05466D4B1B6813F4003FC3D0BC
:1033F000FEF7CAFB401B6428F5D9032059E1674B4F
:103400005B6813F4800FC6D1644B1B6813F0020F86
:1034100003D0E368012B40F04981604A136823F030
:10342000F803216943EAC1031360236813F0080F0E
:1034300040D0636963B35B4B01221A60FEF7A4FBC3
:103440000546564B5B6F13F0020F33D1FEF79CFB22
:10345000401B0228F5D903202BE1504A136823F0C2
:10346000F803216943EAC1031360DEE74C4B0022F5
:103470001A60FEF789FB0546484B1B6813F0020FE4
:10348000D3D0FEF781FB401B0228F5D9032010E1C1
:10349000444B00221A60FEF777FB05463F4B5B6FFB
:1034A00013F0020F06D0FEF76FFB401B0228F5D980
:1034B0000320FEE0236813F0040F78D0374B1B6C19
:1034C00013F0805F0DD100230193344B1A6C42F04E
:1034D00080521A641B6C03F080530193019B0125F9
:1034E00000E00025304B1B6813F4807F21D0A368D7
:1034F000012B32D0052B36D0284B1A6F22F0010257
:103500001A671A6F22F004021A67A368002B34D0DE
:10351000FEF73AFB0646214B1B6F13F0020F45D115
:10352000FEF732FB801B41F288339842F3D9032027
:10353000BFE01D4A136843F480731360FEF724FB59
:103540000646194B1B6813F4807FD0D1FEF71CFB95
:10355000801B0228F5D90320ABE0104A136F43F01B
:1035600001031367D1E70D4B1A6F42F004021A678B
:103570001A6F42F001021A67C7E7FEF705FB06461D
:10358000064B1B6F13F0020F10D0FEF7FDFA801BE5
:1035900041F288339842F3D903208AE00038024090
:1035A00000004742800E474200700040E5B9A36921
:1035B000002B7DD0464A926802F00C02082A51D0B6
:1035C000022B17D0434B00221A60FEF7DDFA0446A7
:1035D0003F4B1B6813F0007F42D0FEF7D5FA001B6B
:1035E0000228F5D9032064E0394A136C23F0805394
:1035F0001364DCE7374B00221A60FEF7C5FA054674
:10360000334B1B6813F0007F06D0FEF7BDFA401B5A
:103610000228F5D903204CE0E369226A1343626A69
:1036200043EA8213A26A5208013A43EA0243E26A79
:1036300043EA0263264A5360264B01221A60FEF7D2
:10364000A3FA0446224B1B6813F0007F06D1FEF755
:103650009BFA001B0228F5D903202AE0002028E06D
:10366000002026E0012B26D0194B5B6803F4800173
:10367000E269914221D103F03F02216A8A421ED1C0
:10368000616A47F6C0721A408A421AD103F4403286
:10369000A16A8A4217D103F07063E26A934214D19F
:1036A000002006E001207047012002E0012000E038
:1036B000002002B070BD0120FBE70120F9E70120E6
:1036C000F7E70120F5E70120F3E70120F1E700BF6C
:1036D0000038024060004742F8B5244B9B6803F075
:1036E0000C03042B3DD0082B3DD1204B5A6802F02F
:1036F0003F025B6813F4800F12D01C4B5968C1F372
:10370000881100231A48A1FB0001FDF767F8174B49
:103710005B68C3F3014301335B00B0FBF3F023E0CC
:10372000124B5B68C3F388135C010025E41A65F152
:103730000005AE0146EA9466A701381B66EB050159
:10374000CC0044EA5074C500E81844F100018B0233
:1037500043EA90538402204619460023FDF73EF8C1
:10376000D5E7034800E00348F8BD00BF0038024039
:10377000001BB7000024F400002800F09B8070B507
:103780000D4604464F4B1B6803F00F038B4208D2D3
:10379000CBB24C4A1370136803F00F038B4240F016
:1037A0008B80236813F0020F17D013F0040F04D09E
:1037B000454A936843F4E0539360236813F0080F7D
:1037C00004D0414A936843F4604393603E4A93684F
:1037D00023F0F003A1680B439360236813F0010FFB
:1037E00032D06368012B21D09A1E012A25D9364A8E
:1037F000126812F0020F61D033498A6822F0030286
:1038000013438B60FEF7C0F906462F4B9B6803F00D
:103810000C036268B3EB820F16D0FEF7B5F9801B7C
:1038200041F288339842F0D9032042E0264A1268D8
:1038300012F4003FE0D101203BE0234A126812F06D
:10384000007FD9D1012034E01E4B1B6803F00F0329
:10385000AB4207D9EAB21B4B1A701B6803F00F0387
:10386000AB422DD1236813F0040F06D0164A93689B
:1038700023F4E053E1680B439360236813F0080FCF
:1038800007D0114A936823F46043216943EAC103D6
:103890009360FFF721FF0C4B9B68C3F303130B4AA4
:1038A000D35CD8400A4B18600A4B186803F06CFAD6
:1038B000002070BD012070470120FAE70120F8E7E1
:1038C0000120F6E7003C024000380240A0820008D8
:1038D0001800002010000020014B1868704700BF3E
:1038E0001800002008B5FFF7F7FF044B9B68C3F3EF
:1038F0008223034AD35CD84008BD00BF0038024091
:10390000B082000808B5FFF7E7FF044B9B68C3F3DC
:103910004233034AD35CD84008BD00BF00380240A0
:10392000B08200080F2303600B4B9A6802F0030279
:1039300042609A6802F0F00282609A6802F4E052F3
:10394000C2609B68DB0803F4E0530361034B1B6810
:1039500003F00F030B60704700380240003C024048
:103960002DE9F0410646884617461D463468A4688E
:1039700038EA04030CBF01240024BC4237D0B5F15F
:10398000FF3FF3D0FEF700F9069BC01AA84201D210
:10399000002DEBD13268536823F0E0035360736865
:1039A000B3F5827F0BD0B36AB3F5005F14D0012367
:1039B00086F85130002386F85030032018E0B368B1
:1039C000B3F5004F02D0B3F5806FECD132681368C5
:1039D00023F040031360E6E73268136823F40053D2
:1039E00013603268136843F400531360DFE700206C
:1039F000BDE8F08130B585B00446164B1868164B0B
:103A0000A3FB0030400D4FF47A7505FB00F00390E6
:103A10006368B3F5827F0BD0039BBBB1039B013B73
:103A2000039323689B6813F0800FF5D100200EE00C
:103A300000920B46002280212046FFF791FF30B113
:103A4000636D43F020036365032000E0002005B0B0
:103A500030BD00BF18000020819F5E1600283BD0BB
:103A600010B504460023836290F85130002B2ED00D
:103A7000022384F851302268136823F04003136056
:103A80006368A2681343E2681343226913436269BF
:103A90001343A26902F400721343E2691343226ADA
:103AA0001343A16A22680B431360638B03F0040382
:103AB000616A22680B4353602268D36923F4006370
:103AC000D36100206065012384F8513010BD80F877
:103AD000503003F0BFF8CBE7012070472DE9F043E9
:103AE00083B01F460A9D90F85030012B00F01081E2
:103AF000044688469146012380F85030FEF744F88A
:103B0000064694F85130DBB26268012B0AD0B2F558
:103B1000827F40F0E380A268002A40F0E980042B15
:103B200040F0E880B8F1000F00F0E680B9F1000F36
:103B300000F0E480002F00F0E38094F85130DBB215
:103B4000042B02D0052384F8513000236365C4F8A8
:103B50003890E787A787C4F83080E786A786236474
:103B6000636423681A6812F0400F03D11A6842F0A8
:103B700040021A60E368B3F5006F11D063680BB1BF
:103B8000012F0BD1226B236812781A73236B013338
:103B90002363E38E9BB2013B9BB2E38601276BE07C
:103BA00063680BB1012F0BD1226B23681288DA6096
:103BB000236B02332363E38E9BB2013B9BB2E3860C
:103BC00001271CE023689A6812F0010F0ED0E28FE3
:103BD00092B25AB1DA68A36B1A80A36B0233A36363
:103BE000E38F9BB2013B9BB2E3870127FDF7CCFF3C
:103BF000801BA84203D3B5F1FF3F40F08380E38EE2
:103C00009BB21BB9E38F9BB2002B53D023689A68F9
:103C100012F0020FD6D0E28E92B2002AD2D0002F3C
:103C2000D0D0226B1288DA60236B02332363E38ED9
:103C30009BB2013B9BB2E3860027C3E723689A68E7
:103C400012F0010F0ED0E28F92B25AB1DA68A36B74
:103C50001A70A36B0133A363E38F9BB2013B9BB24A
:103C6000E3870127FDF790FF831BAB4202D3B5F139
:103C7000FF3F49D1002D49D0E38E9BB213B9E38FAA
:103C80009BB2BBB123689A6812F0020FD6D0E28EC5
:103C900092B2002AD2D0002FD0D0226B12781A73A1
:103CA000236B01332363E38E9BB2013B9BB2E3861C
:103CB0000027C3E7324629462046FFF79BFE48B956
:103CC000A36863B901932368DA6801929B68019342
:103CD000019B04E020236365012000E00220012312
:103CE00084F85130002384F8503003B0BDE8F083ED
:103CF0000220F4E70220F2E70120F0E70120EEE7DE
:103D00000120ECE70320EAE70320E8E70320E6E7E9
:103D10000220EAE730B4036A23F001030362056A74
:103D20004268846924F073040B681C4325F0020583
:103D30008B682B43104DA84203D005F58065A8423F
:103D400005D123F00803CD682B4323F004030A4D6B
:103D5000A84203D005F58065A84205D122F440723F
:103D60004D6915438A692A43426084614A68426307
:103D7000036230BC704700BF0000014030B4036AEA
:103D800023F480730362036A4268C46924F07304F5
:103D90000D682C4323F400738D6843EA0523124D0C
:103DA000A84203D005F58065A84206D123F400633C
:103DB000CD6843EA052323F480630B4DA84203D06A
:103DC00005F58065A84207D122F440524D6942EAC8
:103DD00005128D6942EA05124260C4614A68C263F5
:103DE000036230BC704700BF0000014030B4036A7A
:103DF00023F480530362036A4468C26922F4E642F2
:103E00000D6842EA052223F400538D6843EA053326
:103E1000094DA84203D005F58065A84204D124F4D9
:103E200080444D6944EA85144460C2614A68026472
:103E3000036230BC704700BF0000014030B4036A29
:103E4000056A25F001050562846924F0F00444EA5E
:103E5000021423F00A030B438461036230BC7047F1
:103E600030B4056A25F0100505628469036A24F4FC
:103E7000704444EA023423F0A00343EA011384614E
:103E8000036230BC7047836823F070030B4343F038
:103E9000070383607047022380F83D30026893680F
:103EA00003F00703062B03D0136843F001031360EC
:103EB000012380F83D30002070470268D36843F04A
:103EC0000103D3600268936803F00703062B03D055
:103ED000136843F001031360002070477047704778
:103EE000704770477047704710B5044603681A69F9
:103EF00012F0020F11D0DA6812F0020F0DD06FF03D
:103F000002021A610123037703689B6913F0030F10
:103F100070D0FFF7E6FF0023237723681A6912F0B9
:103F2000040F12D0DA6812F0040F0ED06FF0040202
:103F30001A610223237723689B6913F4407F5FD0C3
:103F40002046FFF7CEFF0023237723681A6912F07B
:103F5000080F12D0DA6812F0080F0ED06FF00802C6
:103F60001A61042323772368DB6913F0030F4ED013
:103F70002046FFF7B6FF0023237723681A6912F063
:103F8000100F12D0DA6812F0100F0ED06FF010027E
:103F90001A61082323772368DB6913F4407F3DD03F
:103FA0002046FFF79EFF0023237723681A6912F04B
:103FB000010F03D0DA6812F0010F36D123681A69B5
:103FC00012F0800F03D0DA6812F0800F34D123682A
:103FD0001A6912F0400F03D0DA6812F0400F32D1A4
:103FE00023681A6912F0200F03D0DA6812F0200F4C
:103FF00030D110BDFFF774FF2046FFF773FF8AE74B
:104000002046FFF76DFF2046FFF76CFF9BE7204639
:10401000FFF766FF2046FFF765FFACE72046FFF796
:104020005FFF2046FFF75EFFBDE76FF001021A61F8
:10403000204602F0D5FDC1E76FF080021A612046EC
:1040400000F0B0FAC3E76FF040021A612046FFF7B4
:104050004AFFC5E76FF020021A61204600F0A1FA7E
:10406000C7E700000368304A904212D0B0F1804F99
:104070000FD0A2F57C4290420BD002F580629042B4
:1040800007D002F58062904203D002F57842904258
:1040900003D123F070034A681343234A90422AD085
:1040A000B0F1804F27D0A2F57C42904223D002F598
:1040B000806290421FD002F5806290421BD002F5D0
:1040C0007842904217D002F57052904213D002F518
:1040D000806290420FD002F5806290420BD0A2F530
:1040E0009832904207D002F58062904203D002F5E8
:1040F0008062904203D123F44073CA68134323F0D3
:1041000080034A69134303608B68C3620B68836250
:10411000054B984203D003F58063984201D10B69A7
:10412000036301234361704700000140B0B110B543
:10413000044690F83D3063B1022384F83D302146B7
:1041400051F8040BFFF78EFF012384F83D30002067
:1041500010BD80F83C3002F003FFEDE7012070470E
:10416000B0B110B5044690F83D3063B1022384F835
:104170003D30214651F8040BFFF774FF012384F80A
:104180003D30002010BD80F83C30FFF7A7FEEDE782
:1041900001207047B0B110B5044690F83D3063B1CE
:1041A000022384F83D30214651F8040BFFF75AFFF3
:1041B000012384F83D30002010BD80F83C30FFF72B
:1041C0008EFEEDE70120704730B4036A23F0100340
:1041D0000362036A4468826922F4E6420D6842EA97
:1041E000052223F020038D6843EA0513114DA842F0
:1041F00003D005F58065A84206D123F08003CD6881
:1042000043EA051323F040030A4DA84203D005F505
:104210008065A84207D124F440644D6944EA8504CE
:104220008D6944EA8504446082614A68826303625E
:1042300030BC70470000014090F83C30012B28D082
:1042400010B50446012380F83C30022380F83D304D
:104250000C2A0BD8DFE802F0070A0A0A110A0A0A38
:10426000150A0A0A19000068FFF754FD012384F8B3
:104270003D30002084F83C0010BD0068FFF7A4FF2B
:10428000F4E70068FFF77AFDF0E70068FFF7AEFD9E
:10429000ECE70220704738B590F83C30012B66D02F
:1042A00004460D46012380F83C30022380F83D305F
:1042B0000C2A1AD8DFE802F0071919192019191960
:1042C0003419191947000068FFF724FD2268936923
:1042D00043F0080393612268936923F00403936118
:1042E0002268936929690B439361012384F83D3067
:1042F000002084F83C0038BD0068FFF765FF2268A5
:10430000936943F4006393612268936923F48063A3
:10431000936122689369296943EA01239361E4E781
:104320000068FFF72BFD2268D36943F00803D361CF
:104330002268D36923F00403D3612268D369296911
:104340000B43D361D1E70068FFF750FD2268D369C2
:1043500043F40063D3612268D36923F48063D3619B
:104360002268D369296943EA0123D361BDE70220AA
:10437000C1E710B4846824F47F4442EA03220A436C
:10438000224382605DF8044B704790F83C30012B6B
:1043900066D010B50446012380F83C30022380F833
:1043A0003D300268936823F47F4323F077039360E2
:1043B0000B68602B40D022D8402B47D00BD9502B14
:1043C0000ED1CA6849680068FFF738FD502120689F
:1043D000FFF759FD04E0202B0CD008D9302B09D071
:1043E000012384F83D30002084F83C0010BD0BB15F
:1043F000102BF5D119462068FFF745FDF0E7702B2B
:104400000ED0B3F5005FEBD1CB684A6889680068CD
:10441000FFF7AFFF2268936843F480439360DFE7C0
:10442000CB684A6889680068FFF7A3FF2268936831
:1044300043F077039360D3E7CA6849680068FFF7E1
:104440000FFD60212068FFF71EFDC9E7CA684968B3
:104450000068FFF7F3FC40212068FFF714FDBFE779
:104460000220704710B401F01F01012303FA01F488
:10447000036A23EA04030362036A02FA01F10B43AD
:1044800003625DF8044B704710B5044601220068D2
:10449000FFF7E8FF23680B4A934203D002F58062DE
:1044A000934203D15A6C42F400425A6422689368E2
:1044B00003F00703062B03D0136843F001031360D6
:1044C000002010BD0000014090F83C30012B3BD093
:1044D00030B4012380F83C30022380F83D3003687B
:1044E0005C689D6824F070040A6822435A6003687F
:1044F000164A93421AD0B3F1804F17D0A2F57C42EE
:10450000934213D002F5806293420FD002F580628D
:1045100093420BD002F57842934207D002F57052D5
:10452000934203D0A2F59432934204D125F0800542
:104530004A6815439D60012380F83D30002380F8D0
:104540003C30184630BC70470220704700000140E4
:1045500090F83C30012B22D0012380F83C30CB680E
:1045600023F440738A68134323F480634A68134337
:1045700023F400630A68134323F480530A69134346
:1045800023F400534A69134323F48043CA69134355
:1045900002685364002380F83C30184670470220BC
:1045A000704770477047000070B504460268136991
:1045B00023F44053C1680B431361836802691343BA
:1045C00042691343C2691A430168CB6823F4164356
:1045D00023F00C031343CB600268536923F4407348
:1045E00081690B435361C369B3F5004F36D003684B
:1045F000654A934200F09A8002F58062934200F08F
:104600009580FFF76FF90026051846EB06012D1877
:1046100046EB0101CB0043EA5573EA001546194603
:1046200063689A009B0F281846EB0101FCF7D6F847
:10463000564DA5FB00325109642303FB11031B01F6
:104640003233A5FB03235B0903F0F00202EB0112F6
:1046500003F00F03216813448B6093E003684A4A18
:10466000934233D002F5806293422FD0FFF73AF99C
:104670000026051846EB06012D1846EB0101CB007C
:1046800043EA5573EA0015461946626833469218A4
:1046900046EB0303281846EB0101FCF79FF83B4D5E
:1046A000A5FB00325109642303FB1103DB00323305
:1046B000A5FB03235B095A0002F4F87202EB011216
:1046C00003F00703216813448B605BE0FFF71AF9DE
:1046D0000026051846EB06012D1846EB0101CB001C
:1046E00043EA5573EA001546194662683346921844
:1046F00046EB0303281846EB0101FCF76FF8234D46
:10470000A5FB00325109642303FB1103DB003233A4
:10471000A5FB03235B095A0002F4F87202EB0112B5
:1047200003F00703216813448B602BE0FFF7EAF8DE
:104730000026051846EB06012D1846EB0101CB00BB
:1047400043EA5573EA001546194663689A009B0FC1
:10475000281846EB0101FCF741F80C4DA5FB00328F
:104760005109642303FB11031B013233A5FB03230F
:104770005B0903F0F00202EB011203F00F03216862
:1047800013448B6070BD00BF001001401F85EB51CA
:1047900058B310B5044690F839300BB3242384F88D
:1047A00039302268D36823F40053D3602046FFF7E2
:1047B000FBFE2268136923F4904313612268536956
:1047C00023F02A0353612268D36843F40053D36073
:1047D0000020E063202384F8393084F83A3010BD9B
:1047E00080F8383002F0C0FED8E7012070470000A2
:1047F000EFF305837BB9EFF3108313B9EFF3118364
:104800001BB1094B1B68022B08D0074B186840B935
:1048100001221A6070476FF0050070476FF00500C5
:1048200070474FF0FF307047100D002008B5EFF3D0
:104830000583A3B9EFF3108313B9EFF311831BB111
:104840000B4B1B68022B0DD0094B1B68012B0CD1A5
:10485000074B02221A6001F005F9002008BD6FF035
:104860000500FBE76FF00500F8E74FF0FF30F5E7D4
:10487000100D0020F0B587B000240594EFF30584F7
:10488000002C38D1EFF3108313B9EFF311831BB170
:104890002D4B1B68022B2ED068B322B31568936989
:1048A00003B918235C1E372C49D8546814F0010F43
:1048B00047D156696EB14FEA960C94682CB1D7680F
:1048C0005B2F02D9176907B1C6B92CB14FF0FF347D
:1048D0000EE04FF0800CF0E7D4688CB9146994B105
:1048E0004FF0FF3404E01546002418234FF0800CED
:1048F000012C0AD0ACB1059807B0F0BD0124F7E750
:104900004FF0FF34F4E70024F2E714699268029252
:10491000019400930B466246294601F035F8059054
:10492000E9E705AA019200930B461FFA8CF229468B
:1049300001F064F80128DED000230593DBE70020B6
:10494000DAE70020D8E700BF100D002008B5EFF32C
:10495000058383B9EFF3108313B9EFF311831BB110
:10496000084B1B68022B09D008B9002008BD01F0D4
:10497000D9F90020FAE76FF00500F7E76FF00500BE
:10498000F4E700BF100D0020034B0360034B0B60E6
:1049900080231360704700BFB40C0020B40A0020CD
:1049A000034B0360034B0B604FF48073136070473D
:1049B00014110020140D002000F1080343604FF093
:1049C000FF328260C36003610023036070470023ED
:1049D0000361704743684B609A688A6051609960D0
:1049E0000861036801330360704730B40D68B5F1A6
:1049F000FF3F11D000F108031C465B681A68AA4209
:104A0000FAD963684B6099608C60616008610368E3
:104A10000133036030BC70470469F2E70369416801
:104A200082688A60416851605A68824206D00022DA
:104A300002611A68013A1A601868704782685A6001
:104A4000F5E7000082B0002301930D4B1B68B3F122
:104A5000FF3F08D04FF0500383F31188BFF36F8FEF
:104A6000BFF34F8FFEE74FF0500383F31188BFF37E
:104A70006F8FBFF34F8F019B002BFCD002B07047AC
:104A80001400002008480068006880F308884FF090
:104A9000000080F3148862B661B6BFF34F8FBFF396
:104AA0006F8F00DF00BF000008ED00E0DFF80C00B2
:104AB000016841F4700101607047000088ED00E07A
:104AC0004FF0807340F8043C21F0010140F8081CCD
:104AD000054B40F80C3C40F8202C6FF0020340F8E6
:104AE000243C4438704700BF454A000800000000DD
:104AF000074B19680868B0E8F04F80F30988BFF3E6
:104B00006F8F4FF0000080F311887047AFF3008083
:104B1000D04D00204FF0500383F31188BFF36F8F07
:104B2000BFF34F8F0A4A136801331360012B00D083
:104B30007047084B1B6813F0FF0FF9D04FF050037C
:104B400083F31188BFF36F8FBFF34F8FFEE700BF72
:104B50001400002004ED00E0094B1B6843B94FF03E
:104B6000500383F31188BFF36F8FBFF34F8FFEE7BE
:104B7000013B034A13600BB983F31188704700BFF0
:104B800014000020000000000000000000000000F1
:104B9000EFF30980BFF36F8F154B1A681EF0100FEB
:104BA00008BF20ED108A20E9F04F10602DE90900C0
:104BB0004FF0500080F31188BFF34F8FBFF36F8F1A
:104BC00001F0D6F84FF0000080F3118809BC196895
:104BD0000868B0E8F04F1EF0100F08BFB0EC108A64
:104BE00080F30988BFF36F8F704700BFAFF3008079
:104BF000D04D002008B54FF0500383F31188BFF368
:104C00006F8FBFF34F8F00F085FF18B1034B4FF04C
:104C100080521A60002383F3118808BD04ED00E080
:104C2000084A0023136008490B60084B1B680849B9
:104C3000A1FB03139B09013B06490B60072313608B
:104C4000704700BF10E000E018E000E0180000200E
:104C5000D34D621014E000E03A4B1A683A4B9A4286
:104C600029D0384B1A68394B9A422DD010B582B0F2
:104C7000374B1A78D2B20192FF221A701B78DBB23E
:104C80008DF803309DF8033003F05003314A137060
:104C9000314B07221A609DF8033013F0800F1CD0AF
:104CA0002D4A1368013B13609DF803305B00DBB2B3
:104CB0008DF80330EFE74FF0500383F31188BFF313
:104CC0006F8FBFF34F8FFEE74FF0500383F31188D0
:104CD000BFF36F8FBFF34F8FFEE71F4B1B68032B94
:104CE00008D04FF0500383F31188BFF36F8FBFF3E9
:104CF0004F8FFEE71B0203F4E063174A1360019B2A
:104D0000DBB2134A1370154B1A6842F470021A6032
:104D10001A6842F070421A60FFF782FF0024104BBD
:104D20001C60FFF7C3FE0F4A136843F04043136053
:104D3000FFF7A8FE01F01CF8FFF784FE204602B042
:104D400010BD00BF00ED00E071C20F4170C20F4105
:104D500000E400E0701100207411002020ED00E05C
:104D60001400002034EF00E0EFF305830F2B0FD980
:104D7000104A9B5CDBB2104A12789A4208D94FF075
:104D8000500383F31188BFF36F8FBFF34F8FFEE79C
:104D90000A4B1B6803F4E063094A1268934208D97E
:104DA0004FF0500383F31188BFF36F8FBFF34F8F22
:104DB000FEE77047F0E300E0701100200CED00E02A
:104DC00074110020124A12F0070F1ED0D11D21F0DD
:104DD0000701C1F5705313440A460E4802600021D2
:104DE00041601344083B23F007030B4803605960FC
:104DF0001960991A51601360084B1960084B1960CB
:104E0000084B4FF000421A6070474FF47053E4E7CC
:104E10007C110020884D002078110020844D002056
:104E2000804D00207C4D002010B4134B1A461B68A7
:104E30008342FBD35168541884420AD04168441815
:104E4000A3420BD00360904200D010605DF8044B89
:104E500070474068014451601046EFE7074C2468F2
:104E6000A34206D05B681944416013681B68036065
:104E7000E9E70460E7E700BF884D002078110020D3
:104E800070B5044600F038FE344B1B68A3B1344BB8
:104E90001B681C424AD134B1083414F0070F02D009
:104EA00024F007040834002C42D02E4B1B68A34288
:104EB0004DD32D4B1D6804E0FFF784FFE7E72B4639
:104EC00015466A68A24202D22A68002AF7D1234A0C
:104ED0001268AA423DD01E6808362A681A606B68BC
:104EE0001B1B102B10D9281910F0070F08D04FF0FA
:104EF000500383F31188BFF36F8FBFF34F8FFEE72B
:104F000043606C60FFF790FF6A6816490B689B1A54
:104F10000B60164909688B4201D214490B60104B93
:104F20001B6813436B6000232B6002E0002600E047
:104F3000002600F07BFE16F0070F0CD04FF0500358
:104F400083F31188BFF36F8FBFF34F8FFEE7002607
:104F5000EFE70026EDE7304670BD00BF7811002076
:104F60007C4D0020804D0020884D0020844D002085
:104F700080B338B50446A0F1080550F8043C164A41
:104F80001268134208D14FF0500383F31188BFF326
:104F90006F8FBFF34F8FFEE750F8081C41B14FF001
:104FA000500383F31188BFF36F8FBFF34F8FFEE77A
:104FB00023EA020340F8043C00F09EFD54F8041C70
:104FC000064A13680B4413602846FFF72DFF00F0D4
:104FD0002DFE38BD704700BF7C4D0020804D002065
:104FE00010B50446FFF796FDA26BE36B9A4204D01E
:104FF0000024FFF7B1FD204610BD0124F9E710B5EC
:105000000446FFF787FDA36B23B90124FFF7A4FD36
:10501000204610BD0024F9E770B504461546866B9E
:10502000026C5AB903681BB100200136A66370BD3B
:10503000806800F0C7FF0023A360F6E76DB9406801
:10504000FBF748FD226C636813446360A2689342D7
:1050500019D3236863602846E7E7C068FBF73AFD89
:10506000226C5142E3689B1AE3602268934202D2A9
:10507000A3680B44E360022D01D00020D5E726B1E0
:10508000013E0020D1E72846CFE70020CDE70346C8
:10509000026C6AB110B50846D9681144D9609C68A1
:1050A000A14201D31968D960D968FBF713FD10BD7F
:1050B000704738B50546FFF72DFD95F8454064B2B9
:1050C00003E000F069FF013C64B2002C08DD6B6A6C
:1050D00033B105F1240000F0CBFE0028F3D0F0E757
:1050E000FF2385F84530FFF737FDFFF713FD95F8EF
:1050F000444064B203E000F04FFF013C64B2002C76
:1051000008DD2B6933B105F1100000F0B1FE002875
:10511000F3D0F0E7FF2385F84430FFF71DFD38BDDD
:1051200038B5E0B10D460446FFF7F4FC2168E26BA8
:10513000236C03FB0210A0600020A0636160013AB1
:1051400002FB0313E360FF2384F8443084F8453006
:10515000EDB9236963B9FFF7FFFC012038BD4FF0BB
:10516000500383F31188BFF36F8FBFF34F8FFEE7B8
:1051700004F1100000F07CFE0028ECD0084B4FF04A
:1051800080521A60BFF34F8FBFF36F8FE3E704F1D4
:105190001000FFF711FC04F12400FFF70DFCDAE723
:1051A00004ED00E038B51D46049C0B4649B9246067
:1051B000E063236401212046FFF7B2FF84F84C50DE
:1051C00038BD2260F4E740B94FF0500383F31188F3
:1051D000BFF36F8FBFF34F8FFEE730B585B01C462E
:1051E000054653B192B189B94FF0500383F311884A
:1051F000BFF36F8FBFF34F8FFEE74FF0500383F382
:105200001188BFF36F8FBFF34F8FFEE76AB1502352
:105210000393039B502B13D04FF0500383F311885B
:10522000BFF36F8FBFF34F8FFEE70029EFD04FF032
:10523000500383F31188BFF36F8FBFF34F8FFEE7E7
:10524000039B012384F8463000949DF820302846C3
:10525000FFF7A8FF204605B030BD0000F0B585B0CF
:10526000019288B10E461D460446B1B1022D20D1EF
:10527000E36B012B1DD04FF0500383F31188BFF374
:105280006F8FBFF34F8FFEE74FF0500383F311880A
:10529000BFF36F8FBFF34F8FFEE7036C002BE5D09A
:1052A0004FF0500383F31188BFF36F8FBFF34F8F1D
:1052B000FEE700F077FE074658B9019B002B44D06B
:1052C0004FF0500383F31188BFF36F8FBFF34F8FFD
:1052D000FEE7002739E02A4631462046FFF79CFECC
:1052E000626A6AB938B13C4B4FF080521A60BFF322
:1052F0004F8FBFF36F8FFFF72FFC012005B0F0BD7C
:1053000004F1240000F0B4FD0028F4D0324B4FF03B
:1053100080521A60BFF34F8FBFF36F8FEBE7FFF739
:105320001BFC0020EAE702A800F0E8FD012719E0D5
:10533000002384F8443021E0002384F8453023E042
:105340002046FFF7B6FE00F071FCFFF7E3FBA26B0F
:10535000E36B9A42BFD3022DBDD0019B002BDED060
:10536000002FE0D0FFF7F8FB00F0C6FBFFF7D2FB01
:1053700094F844305BB2B3F1FF3FD9D094F8453094
:105380005BB2B3F1FF3FD7D0FFF7E6FB01A902A85C
:1053900000F0C0FDC8B92046FFF722FE0028CFD09C
:1053A000019904F1100000F02FFD2046FFF781FE67
:1053B00000F03CFC0028C8D1074B4FF080521A6027
:1053C000BFF34F8FBFF36F8FBFE72046FFF771FE2C
:1053D00000F02CFC002091E704ED00E02DE9F843FB
:1053E00090B1894690461F460446B1B1022F20D1A4
:1053F000E36B012B1DD04FF0500383F31188BFF3F3
:105400006F8FBFF34F8FFEE74FF0500383F3118888
:10541000BFF36F8FBFF34F8FFEE7036C002BE5D018
:105420004FF0500383F31188BFF36F8FBFF34F8F9B
:10543000FEE7FFF799FCEFF311864FF0500383F37B
:105440001188BFF36F8FBFF34F8FA26BE36B9A424C
:1054500006D3022F04D0002086F31188BDE8F8831C
:1054600094F845506DB23A4649462046FFF7D4FDC0
:10547000B5F1FF3F05D06B1C5BB284F845300120CD
:10548000EAE7636A0BB90120E6E704F1240000F0C3
:10549000EFFC30B1B8F1000F05D00120C8F80000D2
:1054A000DAE70120D8E70120D6E70000F0B585B0A3
:1054B000019290B10E460446C1B100F073FD07465B
:1054C00000BB019B002B5CD04FF0500383F311888D
:1054D000BFF36F8FBFF34F8FFEE74FF0500383F39F
:1054E0001188BFF36F8FBFF34F8FFEE7036C002B64
:1054F000E3D04FF0500383F31188BFF36F8FBFF3F6
:105500004F8FFEE700273CE031462046FFF7BFFD06
:10551000013DA563236923B9FFF71EFB012005B0F8
:10552000F0BD04F1100000F0A3FC0028F4D0354BCE
:105530004FF080521A60BFF34F8FBFF36F8FEBE7CE
:10554000FFF70AFB0020EAE702A800F0D7FC0127DA
:1055500021E0002384F8443029E0002384F845301A
:105560002BE02046FFF7A5FD00F060FB09E0204698
:10557000FFF79FFD00F05AFB2046FFF740FD002893
:105580003DD1FFF7C7FAA56B002DBDD1019B002BC4
:10559000D6D0002FD8D0FFF7DFFA00F0ADFAFFF732
:1055A000B9FA94F844305BB2B3F1FF3FD1D094F82C
:1055B00045305BB2B3F1FF3FCFD0FFF7CDFA01A981
:1055C00002A800F0A7FC0028D1D12046FFF717FD64
:1055D0000028C6D0019904F1240000F015FC2046F3
:1055E000FFF767FD00F022FB0028CAD1054B4FF002
:1055F00080521A60BFF34F8FBFF36F8FC1E7002057
:105600008DE700BF04ED00E0002300E00133072B2D
:105610000BD8064A52F83320002AF7D1034A42F841
:10562000331002EBC303586070477047904D002061
:1056300070B504460D461646FFF76CFA94F84430F0
:105640005BB2B3F1FF3F0DD094F845305BB2B3F1DC
:10565000FF3F0BD0FFF780FAA36B5BB12046FFF74B
:1056600028FD70BD002384F84430EDE7002384F862
:105670004530EFE73246294604F1240000F0DCFB18
:10568000ECE70000084B1B681B6823B9074B4FF081
:10569000FF321A607047044B1B68DB68DB685A688E
:1056A000024B1A60704700BFD44D00207C5200208E
:1056B0002DE9F04780460D4617469946089EDDF8CD
:1056C00024A00A9C9200A521206B02F033FB236BDF
:1056D00007F18042013A03EB820727F0070785B301
:1056E00000220F2A07D8A95CA31883F83410AB5CFA
:1056F0000BB10132F5E7002384F84330372E00D98F
:105700003726E662E66400252565201DFFF75FF970
:1057100004F11800FFF75BF92461C6F13806A661B1
:105720006462656584F858504A4641463846FFF73A
:10573000C7F92060BAF1000F01D0CAF80040BDE8F7
:10574000F087002384F83430D8E7000038B500240F
:10575000372C08D804EB840293000E481844FFF756
:105760002BF90134F4E70C4D2846FFF725F90B4CD3
:105770002046FFF721F90A48FFF71EF90948FFF70D
:105780001BF90948FFF718F9084B1D60084B1C600E
:1057900038BD00BFDC4D002054520020685200206C
:1057A00084520020B05200209C520020D44D002092
:1057B000D84D002010B50446FFF7ACF9214A136814
:1057C00001331360204B1B685BB1204B1B686BB926
:1057D0001D4B1B68DA6AE36A9A4207D81A4B1C60B1
:1057E00004E0194B1C601368012B27D0184A13687A
:1057F000013313606364E06A164B1B68984201D959
:10580000144B186000EB8000211D134B03EB80004C
:10581000FFF7E0F8FFF7A0F90C4B1B686BB10A4BE0
:105820001B68DA6AE36A9A4207D20C4B4FF0805247
:105830001A60BFF34F8FBFF36F8F10BDFFF786FF66
:10584000D4E700BF3C520020D04D002098520020E9
:105850004C52002050520020DC4D002004ED00E0AE
:1058600010B5044690F8593063B1012B11D0022BCA
:105870000ED04FF0500383F31188BFF36F8FBFF347
:105880004F8FFEE7006BFFF773FB2046FFF770FBBF
:1058900010BDFFF76DFBFBE70F4B1B68D3B110B5D5
:1058A000FFF738F90D4BDB68DC68201DFFF7B6F811
:1058B0000B4A1368013B1360074A1368013B1360EE
:1058C000FFF74AF92046FFF7CBFF034B1B68002B7D
:1058D000E6D110BD704700BF40520020B0520020FA
:1058E0003C52002008B5FFF7D7FF064B1B68012B81
:1058F000F9D9054B4FF080521A60BFF34F8FBFF3B9
:105900006F8FF0E7DC4D002004ED00E070B5044639
:105910000D46174B1E68174B18680430FFF77EF8CA
:10592000B4F1FF3F0DD03444124B1B685C60A642BB
:1059300010D9114B18680F4B19680431FFF755F84F
:1059400070BD002DEFD00B4B196804310B48FFF7E9
:1059500041F8F5E70A4B1868064B19680431FFF760
:1059600044F8084B1B68A342EAD9064B1C60E7E7E2
:10597000C4520020D04D0020D84D00209C52002061
:10598000D44D00207C52002070B586B00B9D0C9C3D
:1059900075B1B4B15C260496049E5C2E1AD04FF00B
:1059A000500383F31188BFF36F8FBFF34F8FFEE770
:1059B0004FF0500383F31188BFF36F8FBFF34F8F06
:1059C000FEE74FF0500383F31188BFF36F8FBFF3EF
:1059D0004F8FFEE7049E2563022584F85950002569
:1059E0000395029405AD01950A9D0095FFF760FEB1
:1059F0002046FFF7DFFE059806B070BD2DE9F043A5
:105A000085B00746884614461E469000FFF738FAD0
:105A100000B381465C20FFF733FA0546B0B1C0F809
:105A20003090E5B1002385F85930039302950D9B22
:105A300001930C9B00933346224641463846FFF7BC
:105A400037FE2846FFF7B6FE012005E04846FFF77F
:105A50008FFAE6E74FF0FF3005B0BDE8F0834FF076
:105A6000FF30F9E710B588B000240594069407AA22
:105A700006A905A8FEF788FF059B0293069B0193E4
:105A800000942346079A17491748FFF77DFF48B14E
:105A900000F04CFB0346012B06D0B3F1FF3F18D0BA
:105AA00008B010BD0023F6E74FF0500383F31188D0
:105AB000BFF36F8FBFF34F8F0C4B4FF0FF321A6065
:105AC0000B4B01221A600B4B00221A60FFF7C4F83F
:105AD000E6E74FF0500383F31188BFF36F8FBFF3F6
